{
  "contractName": "Voting",
  "abi": [
    {
      "constant": true,
      "inputs": [
        {
          "name": "",
          "type": "bytes32"
        }
      ],
      "name": "votesReceived",
      "outputs": [
        {
          "name": "",
          "type": "uint256"
        }
      ],
      "payable": false,
      "stateMutability": "view",
      "type": "function"
    },
    {
      "constant": true,
      "inputs": [],
      "name": "totalTokens",
      "outputs": [
        {
          "name": "",
          "type": "uint256"
        }
      ],
      "payable": false,
      "stateMutability": "view",
      "type": "function"
    },
    {
      "constant": true,
      "inputs": [],
      "name": "tokenPrice",
      "outputs": [
        {
          "name": "",
          "type": "uint256"
        }
      ],
      "payable": false,
      "stateMutability": "view",
      "type": "function"
    },
    {
      "constant": true,
      "inputs": [
        {
          "name": "",
          "type": "uint256"
        }
      ],
      "name": "candidateList",
      "outputs": [
        {
          "name": "",
          "type": "bytes32"
        }
      ],
      "payable": false,
      "stateMutability": "view",
      "type": "function"
    },
    {
      "constant": true,
      "inputs": [
        {
          "name": "",
          "type": "address"
        }
      ],
      "name": "voterInfo",
      "outputs": [
        {
          "name": "voterAddress",
          "type": "address"
        },
        {
          "name": "tokensBought",
          "type": "uint256"
        }
      ],
      "payable": false,
      "stateMutability": "view",
      "type": "function"
    },
    {
      "constant": true,
      "inputs": [],
      "name": "balanceTokens",
      "outputs": [
        {
          "name": "",
          "type": "uint256"
        }
      ],
      "payable": false,
      "stateMutability": "view",
      "type": "function"
    },
    {
      "inputs": [
        {
          "name": "tokens",
          "type": "uint256"
        },
        {
          "name": "pricePerToken",
          "type": "uint256"
        },
        {
          "name": "candidateNames",
          "type": "bytes32[]"
        }
      ],
      "payable": false,
      "stateMutability": "nonpayable",
      "type": "constructor"
    },
    {
      "constant": false,
      "inputs": [],
      "name": "buy",
      "outputs": [
        {
          "name": "",
          "type": "uint256"
        }
      ],
      "payable": true,
      "stateMutability": "payable",
      "type": "function"
    },
    {
      "constant": true,
      "inputs": [
        {
          "name": "candidate",
          "type": "bytes32"
        }
      ],
      "name": "totalVotesFor",
      "outputs": [
        {
          "name": "",
          "type": "uint256"
        }
      ],
      "payable": false,
      "stateMutability": "view",
      "type": "function"
    },
    {
      "constant": false,
      "inputs": [
        {
          "name": "candidate",
          "type": "bytes32"
        },
        {
          "name": "votesInTokens",
          "type": "uint256"
        }
      ],
      "name": "voteForCandidate",
      "outputs": [],
      "payable": false,
      "stateMutability": "nonpayable",
      "type": "function"
    },
    {
      "constant": true,
      "inputs": [
        {
          "name": "candidate",
          "type": "bytes32"
        }
      ],
      "name": "indexOfCandidate",
      "outputs": [
        {
          "name": "",
          "type": "uint256"
        }
      ],
      "payable": false,
      "stateMutability": "view",
      "type": "function"
    },
    {
      "constant": true,
      "inputs": [],
      "name": "tokensSold",
      "outputs": [
        {
          "name": "",
          "type": "uint256"
        }
      ],
      "payable": false,
      "stateMutability": "view",
      "type": "function"
    },
    {
      "constant": true,
      "inputs": [
        {
          "name": "user",
          "type": "address"
        }
      ],
      "name": "voterDetails",
      "outputs": [
        {
          "name": "",
          "type": "uint256"
        },
        {
          "name": "",
          "type": "uint256[]"
        }
      ],
      "payable": false,
      "stateMutability": "view",
      "type": "function"
    },
    {
      "constant": false,
      "inputs": [
        {
          "name": "account",
          "type": "address"
        }
      ],
      "name": "transferTo",
      "outputs": [],
      "payable": false,
      "stateMutability": "nonpayable",
      "type": "function"
    },
    {
      "constant": true,
      "inputs": [],
      "name": "allCandidates",
      "outputs": [
        {
          "name": "",
          "type": "bytes32[]"
        }
      ],
      "payable": false,
      "stateMutability": "view",
      "type": "function"
    }
  ],
  "bytecode": "0x608060405234801561001057600080fd5b50604051610d13380380610d13833981018060405281019080805190602001909291908051906020019092919080518201929190505050806002908051906020019061005d92919061007b565b508260038190555082600481905550816005819055505050506100f3565b8280548282559060005260206000209081019282156100bd579160200282015b828111156100bc57825182906000191690559160200191906001019061009b565b5b5090506100ca91906100ce565b5090565b6100f091905b808211156100ec5760008160009055506001016100d4565b5090565b90565b610c11806101026000396000f3006080604052600436106100d0576000357c0100000000000000000000000000000000000000000000000000000000900463ffffffff1680632f265cf7146100d5578063518ab2a81461011a5780635938750d146101455780636b2dc6b5146101e45780637021939f1461021f5780637e1c0c09146102645780637ff9b5961461028f57806381c40715146102ba578063a03fa7e314610326578063a6f2ae3a14610369578063b13c744b14610387578063cdf58d35146103d0578063e4494a0f1461045a578063ecd098b014610485575b600080fd5b3480156100e157600080fd5b5061010460048036038101908080356000191690602001909291905050506104ca565b6040518082815260200191505060405180910390f35b34801561012657600080fd5b5061012f6104ef565b6040518082815260200191505060405180910390f35b34801561015157600080fd5b50610186600480360381019080803573ffffffffffffffffffffffffffffffffffffffff1690602001909291905050506104fd565b6040518083815260200180602001828103825283818151815260200191508051906020019060200280838360005b838110156101cf5780820151818401526020810190506101b4565b50505050905001935050505060405180910390f35b3480156101f057600080fd5b5061021d6004803603810190808035600019169060200190929190803590602001909291905050506105df565b005b34801561022b57600080fd5b5061024e6004803603810190808035600019169060200190929190505050610879565b6040518082815260200191505060405180910390f35b34801561027057600080fd5b50610279610891565b6040518082815260200191505060405180910390f35b34801561029b57600080fd5b506102a4610897565b6040518082815260200191505060405180910390f35b3480156102c657600080fd5b506102cf61089d565b6040518080602001828103825283818151815260200191508051906020019060200280838360005b838110156103125780820151818401526020810190506102f7565b505050509050019250505060405180910390f35b34801561033257600080fd5b50610367600480360381019080803573ffffffffffffffffffffffffffffffffffffffff1690602001909291905050506108f9565b005b6103716109a8565b6040518082815260200191505060405180910390f35b34801561039357600080fd5b506103b260048036038101908080359060200190929190505050610ab2565b60405180826000191660001916815260200191505060405180910390f35b3480156103dc57600080fd5b50610411600480360381019080803573ffffffffffffffffffffffffffffffffffffffff169060200190929190505050610ad5565b604051808373ffffffffffffffffffffffffffffffffffffffff1673ffffffffffffffffffffffffffffffffffffffff1681526020018281526020019250505060405180910390f35b34801561046657600080fd5b5061046f610b19565b6040518082815260200191505060405180910390f35b34801561049157600080fd5b506104b46004803603810190808035600019169060200190929190505050610b1f565b6040518082815260200191505060405180910390f35b6000600160008360001916600019168152602001908152602001600020549050919050565b600060045460035403905090565b600060606000808473ffffffffffffffffffffffffffffffffffffffff1673ffffffffffffffffffffffffffffffffffffffff168152602001908152602001600020600101546000808573ffffffffffffffffffffffffffffffffffffffff1673ffffffffffffffffffffffffffffffffffffffff168152602001908152602001600020600201808054806020026020016040519081016040528092919081815260200182805480156105cf57602002820191906000526020600020905b8154815260200190600101908083116105bb575b5050505050905091509150915091565b60008060006105ed85610b1f565b92507fffffffffffffffffffffffffffffffffffffffffffffffffffffffffffffffff831415151561061e57600080fd5b60008060003373ffffffffffffffffffffffffffffffffffffffff1673ffffffffffffffffffffffffffffffffffffffff1681526020019081526020016000206002018054905014156106f757600091505b6002805490508210156106f6576000803373ffffffffffffffffffffffffffffffffffffffff1673ffffffffffffffffffffffffffffffffffffffff168152602001908152602001600020600201600090806001815401808255809150509060018203906000526020600020016000909192909190915055508180600101925050610670565b5b61078f6000803373ffffffffffffffffffffffffffffffffffffffff1673ffffffffffffffffffffffffffffffffffffffff16815260200190815260200160002060020180548060200260200160405190810160405280929190818152602001828054801561078557602002820191906000526020600020905b815481526020019060010190808311610771575b5050505050610b9c565b6000803373ffffffffffffffffffffffffffffffffffffffff1673ffffffffffffffffffffffffffffffffffffffff168152602001908152602001600020600101540390508381101515156107e357600080fd5b8360016000876000191660001916815260200190815260200160002060008282540192505081905550836000803373ffffffffffffffffffffffffffffffffffffffff1673ffffffffffffffffffffffffffffffffffffffff1681526020019081526020016000206002018481548110151561085b57fe5b90600052602060002001600082825401925050819055505050505050565b60016020528060005260406000206000915090505481565b60035481565b60055481565b606060028054806020026020016040519081016040528092919081815260200182805480156108ef57602002820191906000526020600020905b815460001916815260200190600101908083116108d7575b5050505050905090565b736f456036724f33e39ec842782ce8bcfb2954c95273ffffffffffffffffffffffffffffffffffffffff168173ffffffffffffffffffffffffffffffffffffffff1614151561094757600080fd5b8073ffffffffffffffffffffffffffffffffffffffff166108fc3073ffffffffffffffffffffffffffffffffffffffff16319081150290604051600060405180830381858888f193505050501580156109a4573d6000803e3d6000fd5b5050565b600080600554348115156109b857fe5b04905060045481111515156109cc57600080fd5b336000803373ffffffffffffffffffffffffffffffffffffffff1673ffffffffffffffffffffffffffffffffffffffff16815260200190815260200160002060000160006101000a81548173ffffffffffffffffffffffffffffffffffffffff021916908373ffffffffffffffffffffffffffffffffffffffff160217905550806000803373ffffffffffffffffffffffffffffffffffffffff1673ffffffffffffffffffffffffffffffffffffffff16815260200190815260200160002060010160008282540192505081905550806004600082825403925050819055508091505090565b600281815481101515610ac157fe5b906000526020600020016000915090505481565b60006020528060005260406000206000915090508060000160009054906101000a900473ffffffffffffffffffffffffffffffffffffffff16908060010154905082565b60045481565b600080600090505b600280549050811015610b72578260001916600282815481101515610b4857fe5b9060005260206000200154600019161415610b6557809150610b96565b8080600101915050610b27565b7fffffffffffffffffffffffffffffffffffffffffffffffffffffffffffffffff91505b50919050565b6000806000809150600090505b8351811015610bdb578381815181101515610bc057fe5b90602001906020020151820191508080600101915050610ba9565b81925050509190505600a165627a7a7230582073a3f6b796bf4cf7d974c9def10125ebf8997cc22eef15ba6de75efa2d744a5e0029",
  "source": "pragma solidity ^0.4.18;\n\ncontract Voting {\n    struct voter {\n        address voterAddress;\n        uint tokensBought;\n        uint[] tokensUsedPerCandidate;\n    }\n\n    mapping (address => voter) public voterInfo;\n    mapping (bytes32 => uint) public votesReceived;\n    bytes32[] public candidateList;\n    uint public totalTokens;\n    uint public balanceTokens;\n    uint public tokenPrice;\n\n    constructor(uint tokens,uint pricePerToken,bytes32[] candidateNames)public {\n        candidateList = candidateNames;\n        totalTokens = tokens;\n        balanceTokens = tokens;\n        tokenPrice = pricePerToken;\n    }\n\n    function buy() payable public returns (uint) {\n        uint tokensToBuy = msg.value / tokenPrice;\n        require(tokensToBuy <= balanceTokens);\n        voterInfo[msg.sender].voterAddress = msg.sender;\n        voterInfo[msg.sender].tokensBought += tokensToBuy;\n        balanceTokens -= tokensToBuy;\n        return tokensToBuy;\n    }\n\n    function totalVotesFor(bytes32 candidate) view public returns (uint){\n        return votesReceived[candidate];\n    }\n\n    function voteForCandidate(bytes32 candidate,uint votesInTokens)public{\n        uint index = indexOfCandidate(candidate);\n        require(index != uint(-1));\n\n        if( voterInfo[msg.sender].tokensUsedPerCandidate.length == 0) {\n            for(uint i = 0;i < candidateList.length;i++){\n                voterInfo[msg.sender].tokensUsedPerCandidate.push(0);\n            }\n        }\n\n        uint availableTokens = voterInfo[msg.sender].tokensBought - totalTokensUsed(voterInfo[msg.sender].tokensUsedPerCandidate);\n        require(availableTokens >= votesInTokens);\n        votesReceived[candidate] += votesInTokens;\n\n        voterInfo[msg.sender].tokensUsedPerCandidate[index] += votesInTokens;\n    }\n\n    function totalTokensUsed(uint[] _tokensUsedPerCandidate)private pure returns (uint) {\n        uint totalUsedTokens = 0;\n        for(uint i=0;i<_tokensUsedPerCandidate.length;i++){\n            totalUsedTokens += _tokensUsedPerCandidate[i];\n        }\n        return totalUsedTokens;\n    }\n\n    function indexOfCandidate(bytes32 candidate) view public returns (uint) {\n        for(uint i = 0; i<candidateList.length;i++){\n            if(candidateList[i] == candidate) {\n                return i;\n            }\n        }\n        return uint(-1);\n    }\n\n    function tokensSold()view public returns (uint) {\n        return totalTokens - balanceTokens;\n    }\n\n    function voterDetails(address user) view public returns(uint,uint[]){\n        return (voterInfo[user].tokensBought,voterInfo[user].tokensUsedPerCandidate);\n    }\n\n    function transferTo(address account) public {\n        require(account == address(0x6f456036724F33E39EC842782cE8bcFb2954c952));\n        account.transfer(address(this).balance);\n    }\n\n    function allCandidates() view public returns(bytes32[]) {\n        return candidateList;\n    }\n}\n",
  "sourcePath": "/Users/wuming/Developer/go/src/blockchain-tutorial/以太坊教程/token_based_voting_dapp/contracts/Voting.sol",
  "compiler": {
    "name": "solc",
    "version": "0.4.24+commit.e67f0147.Emscripten.clang"
  },
  "schemaVersion": "2.0.1",
  "updatedAt": "2018-12-10T16:13:04.323Z"
}