{
  "contractName": "Voting",
  "abi": [
    {
      "constant": true,
      "inputs": [
        {
          "name": "",
          "type": "bytes32"
        }
      ],
      "name": "votesReceived",
      "outputs": [
        {
          "name": "",
          "type": "uint8"
        }
      ],
      "payable": false,
      "stateMutability": "view",
      "type": "function"
    },
    {
      "constant": true,
      "inputs": [
        {
          "name": "",
          "type": "uint256"
        }
      ],
      "name": "candidateList",
      "outputs": [
        {
          "name": "",
          "type": "bytes32"
        }
      ],
      "payable": false,
      "stateMutability": "view",
      "type": "function"
    },
    {
      "inputs": [
        {
          "name": "candidateListNames",
          "type": "bytes32[]"
        }
      ],
      "payable": false,
      "stateMutability": "nonpayable",
      "type": "constructor"
    },
    {
      "constant": false,
      "inputs": [
        {
          "name": "candidateName",
          "type": "bytes32"
        }
      ],
      "name": "vote",
      "outputs": [],
      "payable": false,
      "stateMutability": "nonpayable",
      "type": "function"
    },
    {
      "constant": true,
      "inputs": [
        {
          "name": "candidateName",
          "type": "bytes32"
        }
      ],
      "name": "totalVotesFor",
      "outputs": [
        {
          "name": "",
          "type": "uint8"
        }
      ],
      "payable": false,
      "stateMutability": "view",
      "type": "function"
    }
  ],
  "bytecode": "0x608060405234801561001057600080fd5b506040516103c43803806103c4833981018060405281019080805182019291905050508060019080519060200190610049929190610050565b50506100c8565b828054828255906000526020600020908101928215610092579160200282015b82811115610091578251829060001916905591602001919060010190610070565b5b50905061009f91906100a3565b5090565b6100c591905b808211156100c15760008160009055506001016100a9565b5090565b90565b6102ed806100d76000396000f300608060405260043610610062576000357c0100000000000000000000000000000000000000000000000000000000900463ffffffff1680632f265cf7146100675780637021939f146100b2578063a69beaba146100fd578063b13c744b1461012e575b600080fd5b34801561007357600080fd5b506100966004803603810190808035600019169060200190929190505050610177565b604051808260ff1660ff16815260200191505060405180910390f35b3480156100be57600080fd5b506100e160048036038101908080356000191690602001909291905050506101bc565b604051808260ff1660ff16815260200191505060405180910390f35b34801561010957600080fd5b5061012c60048036038101908080356000191690602001909291905050506101dc565b005b34801561013a57600080fd5b5061015960048036038101908080359060200190929190505050610239565b60405180826000191660001916815260200191505060405180910390f35b60006101828261025c565b151561018d57600080fd5b600080836000191660001916815260200190815260200160002060009054906101000a900460ff169050919050565b60006020528060005260406000206000915054906101000a900460ff1681565b6101e58161025c565b15156101f057600080fd5b6001600080836000191660001916815260200190815260200160002060008282829054906101000a900460ff160192506101000a81548160ff021916908360ff16021790555050565b60018181548110151561024857fe5b906000526020600020016000915090505481565b600080600090505b6001805490508160ff1610156102b65760018160ff1681548110151561028657fe5b906000526020600020015460001916836000191614156102a957600191506102bb565b8080600101915050610264565b600091505b509190505600a165627a7a72305820fa5b1a2e1b84cc68b7dcfda0e27d19dc20585a8f2e66884653d5019b6383d05a0029",
  "source": "pragma solidity >0.4.22;\n\ncontract Voting {\n    mapping(bytes32=>uint8) public votesReceived;\n    bytes32[] public candidateList;\n\n    constructor(bytes32[] memory candidateListNames)public{\n        candidateList = candidateListNames;\n    }\n\n    function validateCandidate(bytes32 candidateName) internal view returns(bool){\n        for( uint8 i = 0;i<candidateList.length;i++){\n            if (candidateName==candidateList[i])\n                return true;\n        }\n        return false;\n    }\n\n    function vote(bytes32 candidateName) public {\n        require(validateCandidate(candidateName));\n        votesReceived[candidateName] += 1;\n    }\n\n    function totalVotesFor(bytes32 candidateName) public view returns(uint8){\n        require(validateCandidate(candidateName));\n        return votesReceived[candidateName];\n    }\n}\n",
  "sourcePath": "/Users/wuming/Developer/go/src/blockchain-tutorial/以太坊教程/simple_voting_by_truffle_dapp/contracts/Voting.sol",
  "compiler": {
    "name": "solc",
    "version": "0.4.24+commit.e67f0147.Emscripten.clang"
  },
  "schemaVersion": "2.0.1",
  "updatedAt": "2018-11-05T08:48:14.741Z"
}