{
  "contractName": "EcommerceStore",
  "abi": [
    {
      "constant": true,
      "inputs": [],
      "name": "productIndex",
      "outputs": [
        {
          "name": "",
          "type": "uint256"
        }
      ],
      "payable": false,
      "stateMutability": "view",
      "type": "function"
    },
    {
      "inputs": [],
      "payable": false,
      "stateMutability": "nonpayable",
      "type": "constructor"
    },
    {
      "constant": false,
      "inputs": [
        {
          "name": "_name",
          "type": "string"
        },
        {
          "name": "_category",
          "type": "string"
        },
        {
          "name": "_imageLink",
          "type": "string"
        },
        {
          "name": "_descLink",
          "type": "string"
        },
        {
          "name": "_auctionStartTime",
          "type": "uint256"
        },
        {
          "name": "_auctionEndTime",
          "type": "uint256"
        },
        {
          "name": "_startPrice",
          "type": "uint256"
        },
        {
          "name": "_productCondition",
          "type": "uint256"
        }
      ],
      "name": "addProductToStore",
      "outputs": [],
      "payable": false,
      "stateMutability": "nonpayable",
      "type": "function"
    },
    {
      "constant": true,
      "inputs": [
        {
          "name": "_productId",
          "type": "uint256"
        }
      ],
      "name": "getProduct",
      "outputs": [
        {
          "name": "",
          "type": "uint256"
        },
        {
          "name": "",
          "type": "string"
        },
        {
          "name": "",
          "type": "string"
        },
        {
          "name": "",
          "type": "string"
        },
        {
          "name": "",
          "type": "string"
        },
        {
          "name": "",
          "type": "uint256"
        },
        {
          "name": "",
          "type": "uint256"
        },
        {
          "name": "",
          "type": "uint256"
        },
        {
          "name": "",
          "type": "uint8"
        },
        {
          "name": "",
          "type": "uint8"
        }
      ],
      "payable": false,
      "stateMutability": "view",
      "type": "function"
    }
  ],
  "bytecode": "0x608060405234801561001057600080fd5b5060008081905550610ce8806100276000396000f300608060405260043610610057576000357c0100000000000000000000000000000000000000000000000000000000900463ffffffff168063a508b9551461005c578063b9db15b4146101bf578063c897d5a6146103ef575b600080fd5b34801561006857600080fd5b506101bd600480360381019080803590602001908201803590602001908080601f0160208091040260200160405190810160405280939291908181526020018383808284378201915050505050509192919290803590602001908201803590602001908080601f0160208091040260200160405190810160405280939291908181526020018383808284378201915050505050509192919290803590602001908201803590602001908080601f0160208091040260200160405190810160405280939291908181526020018383808284378201915050505050509192919290803590602001908201803590602001908080601f01602080910402602001604051908101604052809392919081815260200183838082843782019150505050505091929192908035906020019092919080359060200190929190803590602001909291908035906020019092919050505061041a565b005b3480156101cb57600080fd5b506101ea600480360381019080803590602001909291905050506106eb565b604051808b8152602001806020018060200180602001806020018a815260200189815260200188815260200187600281111561022257fe5b60ff16815260200186600181111561023657fe5b60ff16815260200185810385528e818151815260200191508051906020019080838360005b8381101561027657808201518184015260208101905061025b565b50505050905090810190601f1680156102a35780820380516001836020036101000a031916815260200191505b5085810384528d818151815260200191508051906020019080838360005b838110156102dc5780820151818401526020810190506102c1565b50505050905090810190601f1680156103095780820380516001836020036101000a031916815260200191505b5085810383528c818151815260200191508051906020019080838360005b83811015610342578082015181840152602081019050610327565b50505050905090810190601f16801561036f5780820380516001836020036101000a031916815260200191505b5085810382528b818151815260200191508051906020019080838360005b838110156103a857808201518184015260208101905061038d565b50505050905090810190601f1680156103d55780820380516001836020036101000a031916815260200191505b509e50505050505050505050505050505060405180910390f35b3480156103fb57600080fd5b50610404610b75565b6040518082815260200191505060405180910390f35b610422610b7b565b838510151561043057600080fd5b600160008082825401925050819055506101c06040519081016040528060005481526020018a8152602001898152602001888152602001878152602001868152602001858152602001848152602001600073ffffffffffffffffffffffffffffffffffffffff168152602001600081526020016000815260200160008152602001600060028111156104be57fe5b81526020018360018111156104cf57fe5b60018111156104da57fe5b815250905080600160003373ffffffffffffffffffffffffffffffffffffffff1673ffffffffffffffffffffffffffffffffffffffff168152602001908152602001600020600080548152602001908152602001600020600082015181600001556020820151816001019080519060200190610557929190610c17565b506040820151816002019080519060200190610574929190610c17565b506060820151816003019080519060200190610591929190610c17565b5060808201518160040190805190602001906105ae929190610c17565b5060a0820151816005015560c0820151816006015560e082015181600701556101008201518160080160006101000a81548173ffffffffffffffffffffffffffffffffffffffff021916908373ffffffffffffffffffffffffffffffffffffffff160217905550610120820151816009015561014082015181600a015561016082015181600b015561018082015181600c0160006101000a81548160ff0219169083600281111561065b57fe5b02179055506101a082015181600c0160016101000a81548160ff0219169083600181111561068557fe5b021790555090505033600260008054815260200190815260200160002060006101000a81548173ffffffffffffffffffffffffffffffffffffffff021916908373ffffffffffffffffffffffffffffffffffffffff160217905550505050505050505050565b60006060806060806000806000806000610703610b7b565b60016000600260008f815260200190815260200160002060009054906101000a900473ffffffffffffffffffffffffffffffffffffffff1673ffffffffffffffffffffffffffffffffffffffff1673ffffffffffffffffffffffffffffffffffffffff16815260200190815260200160002060008d81526020019081526020016000206101c0604051908101604052908160008201548152602001600182018054600181600116156101000203166002900480601f0160208091040260200160405190810160405280929190818152602001828054600181600116156101000203166002900480156108365780601f1061080b57610100808354040283529160200191610836565b820191906000526020600020905b81548152906001019060200180831161081957829003601f168201915b50505050508152602001600282018054600181600116156101000203166002900480601f0160208091040260200160405190810160405280929190818152602001828054600181600116156101000203166002900480156108d85780601f106108ad576101008083540402835291602001916108d8565b820191906000526020600020905b8154815290600101906020018083116108bb57829003601f168201915b50505050508152602001600382018054600181600116156101000203166002900480601f01602080910402602001604051908101604052809291908181526020018280546001816001161561010002031660029004801561097a5780601f1061094f5761010080835404028352916020019161097a565b820191906000526020600020905b81548152906001019060200180831161095d57829003601f168201915b50505050508152602001600482018054600181600116156101000203166002900480601f016020809104026020016040519081016040528092919081815260200182805460018160011615610100020316600290048015610a1c5780601f106109f157610100808354040283529160200191610a1c565b820191906000526020600020905b8154815290600101906020018083116109ff57829003601f168201915b505050505081526020016005820154815260200160068201548152602001600782015481526020016008820160009054906101000a900473ffffffffffffffffffffffffffffffffffffffff1673ffffffffffffffffffffffffffffffffffffffff1673ffffffffffffffffffffffffffffffffffffffff16815260200160098201548152602001600a8201548152602001600b8201548152602001600c820160009054906101000a900460ff166002811115610ad557fe5b6002811115610ae057fe5b8152602001600c820160019054906101000a900460ff166001811115610b0257fe5b6001811115610b0d57fe5b815250509050806000015181602001518260400151836060015184608001518560a001518660c001518760e00151886101800151896101a001518898508797508696508595509a509a509a509a509a509a509a509a509a509a50509193959799509193959799565b60005481565b6101c0604051908101604052806000815260200160608152602001606081526020016060815260200160608152602001600081526020016000815260200160008152602001600073ffffffffffffffffffffffffffffffffffffffff16815260200160008152602001600081526020016000815260200160006002811115610bff57fe5b815260200160006001811115610c1157fe5b81525090565b828054600181600116156101000203166002900490600052602060002090601f016020900481019282601f10610c5857805160ff1916838001178555610c86565b82800160010185558215610c86579182015b82811115610c85578251825591602001919060010190610c6a565b5b509050610c939190610c97565b5090565b610cb991905b80821115610cb5576000816000905550600101610c9d565b5090565b905600a165627a7a72305820a2cf599219e668649c40c7cf75cf8af81b1de1e154aa93b2e8ec88baeeeeaeb30029",
  "source": "pragma solidity ^0.4.13;\n\ncontract EcommerceStore {\n\t//商品状态\n\tenum ProductStatus {Open, Sold, Unsold}\n\t//商品条件\n\tenum ProductCondition {New, Used}\n\t\n\t//计数器，记录商品id\n\tuint public productIndex;\n\t//商家账户地址 => {商品id => 商品}\n\tmapping(address => mapping(uint => Product)) stores;\n\t//商品id => 商家账户地址\n\tmapping(uint => address) productIdInStore;\n\t\n\tstruct Product {\n\t\tuint id;\n\t\tstring name;\n\t\tstring category;\n\t\tstring imageLink;\n\t\tstring descLink;\n\t\tuint auctionStartTime;  //以秒存储开始和结束时间\n\t\tuint auctionEndTime;\n\t\tuint startPrice; //单位为 wei\n\t\taddress highestBidder;\n\t\tuint highestBid;\n\t\tuint secondHighestBid;\n\t\tuint totalBids;\n\t\tProductStatus status;\n\t\tProductCondition condition;\n\t}\n\t\n\tconstructor() public {\n\t\tproductIndex = 0;\n\t}\n\t\n\t//添加商品\n\tfunction addProductToStore(string _name, string _category, string _imageLink, string _descLink, uint _auctionStartTime,\n\t\tuint _auctionEndTime, uint _startPrice, uint _productCondition) public {\n\t\trequire(_auctionStartTime < _auctionEndTime);\n\t\tproductIndex += 1;\n\t\tProduct memory product = Product(productIndex, _name, _category, _imageLink, _descLink, _auctionStartTime, _auctionEndTime,\n\t\t\t_startPrice, 0, 0, 0, 0, ProductStatus.Open, ProductCondition(_productCondition));\n\t\tstores[msg.sender][productIndex] = product;\n\t\tproductIdInStore[productIndex] = msg.sender;\n\t}\n\t\n\t//查询商品\n\tfunction getProduct(uint _productId) view public returns (uint, string, string, string, string, uint, uint, uint, ProductStatus, ProductCondition) {\n\t\tProduct memory product = stores[productIdInStore[_productId]][_productId];\n\t\treturn (product.id, product.name, product.category, product.imageLink, product.descLink, product.auctionStartTime,\n\t\tproduct.auctionEndTime, product.startPrice, product.status, product.condition);\n\t}\n}\n",
  "sourcePath": "/Users/wuming/Developer/go/src/blockchain-tutorial/以太坊教程/ebay_dapp/contracts/EcommerceStore.sol",
  "compiler": {
    "name": "solc",
    "version": "0.4.24+commit.e67f0147.Emscripten.clang"
  },
  "schemaVersion": "2.0.1",
  "updatedAt": "2018-11-10T06:59:23.572Z"
}