{
  "contractName": "EcommerceStore",
  "abi": [
    {
      "constant": true,
      "inputs": [],
      "name": "productIndex",
      "outputs": [
        {
          "name": "",
          "type": "uint256"
        }
      ],
      "payable": false,
      "stateMutability": "view",
      "type": "function"
    },
    {
      "inputs": [],
      "payable": false,
      "stateMutability": "nonpayable",
      "type": "constructor"
    },
    {
      "constant": false,
      "inputs": [
        {
          "name": "_name",
          "type": "string"
        },
        {
          "name": "_category",
          "type": "string"
        },
        {
          "name": "_imageLink",
          "type": "string"
        },
        {
          "name": "_descLink",
          "type": "string"
        },
        {
          "name": "_auctionStartTime",
          "type": "uint256"
        },
        {
          "name": "_auctionEndTime",
          "type": "uint256"
        },
        {
          "name": "_startPrice",
          "type": "uint256"
        },
        {
          "name": "_productCondition",
          "type": "uint256"
        }
      ],
      "name": "addProductToStore",
      "outputs": [],
      "payable": false,
      "stateMutability": "nonpayable",
      "type": "function"
    },
    {
      "constant": true,
      "inputs": [
        {
          "name": "_productId",
          "type": "uint256"
        }
      ],
      "name": "getProduct",
      "outputs": [
        {
          "name": "",
          "type": "uint256"
        },
        {
          "name": "",
          "type": "string"
        },
        {
          "name": "",
          "type": "string"
        },
        {
          "name": "",
          "type": "string"
        },
        {
          "name": "",
          "type": "string"
        },
        {
          "name": "",
          "type": "uint256"
        },
        {
          "name": "",
          "type": "uint256"
        },
        {
          "name": "",
          "type": "uint256"
        },
        {
          "name": "",
          "type": "uint8"
        },
        {
          "name": "",
          "type": "uint8"
        }
      ],
      "payable": false,
      "stateMutability": "view",
      "type": "function"
    },
    {
      "constant": false,
      "inputs": [
        {
          "name": "_productId",
          "type": "uint256"
        },
        {
          "name": "_bid",
          "type": "bytes32"
        }
      ],
      "name": "bid",
      "outputs": [
        {
          "name": "",
          "type": "bool"
        }
      ],
      "payable": true,
      "stateMutability": "payable",
      "type": "function"
    },
    {
      "constant": false,
      "inputs": [
        {
          "name": "_productId",
          "type": "uint256"
        },
        {
          "name": "_amount",
          "type": "string"
        },
        {
          "name": "_secret",
          "type": "string"
        }
      ],
      "name": "revealBid",
      "outputs": [],
      "payable": false,
      "stateMutability": "nonpayable",
      "type": "function"
    },
    {
      "constant": true,
      "inputs": [
        {
          "name": "_productId",
          "type": "uint256"
        }
      ],
      "name": "highestBidderInfo",
      "outputs": [
        {
          "name": "",
          "type": "address"
        },
        {
          "name": "",
          "type": "uint256"
        },
        {
          "name": "",
          "type": "uint256"
        }
      ],
      "payable": false,
      "stateMutability": "view",
      "type": "function"
    },
    {
      "constant": true,
      "inputs": [
        {
          "name": "_productId",
          "type": "uint256"
        }
      ],
      "name": "totalBids",
      "outputs": [
        {
          "name": "",
          "type": "uint256"
        }
      ],
      "payable": false,
      "stateMutability": "view",
      "type": "function"
    }
  ],
  "bytecode": "0x608060405234801561001057600080fd5b506000808190555061214a806100276000396000f300608060405260043610610083576000357c0100000000000000000000000000000000000000000000000000000000900463ffffffff16806328e3d19014610088578063a508b955146100c9578063b9db15b41461022c578063c897d5a61461045c578063ce818ea914610487578063ea1591bb14610502578063f85f196e14610548575b600080fd5b34801561009457600080fd5b506100b360048036038101908080359060200190929190505050610601565b6040518082815260200191505060405180910390f35b3480156100d557600080fd5b5061022a600480360381019080803590602001908201803590602001908080601f0160208091040260200160405190810160405280939291908181526020018383808284378201915050505050509192919290803590602001908201803590602001908080601f0160208091040260200160405190810160405280939291908181526020018383808284378201915050505050509192919290803590602001908201803590602001908080601f0160208091040260200160405190810160405280939291908181526020018383808284378201915050505050509192919290803590602001908201803590602001908080601f016020809104026020016040519081016040528093929190818152602001838380828437820191505050505050919291929080359060200190929190803590602001909291908035906020019092919080359060200190929190505050610a29565b005b34801561023857600080fd5b5061025760048036038101908080359060200190929190505050610cfa565b604051808b8152602001806020018060200180602001806020018a815260200189815260200188815260200187600281111561028f57fe5b60ff1681526020018660018111156102a357fe5b60ff16815260200185810385528e818151815260200191508051906020019080838360005b838110156102e35780820151818401526020810190506102c8565b50505050905090810190601f1680156103105780820380516001836020036101000a031916815260200191505b5085810384528d818151815260200191508051906020019080838360005b8381101561034957808201518184015260208101905061032e565b50505050905090810190601f1680156103765780820380516001836020036101000a031916815260200191505b5085810383528c818151815260200191508051906020019080838360005b838110156103af578082015181840152602081019050610394565b50505050905090810190601f1680156103dc5780820380516001836020036101000a031916815260200191505b5085810382528b818151815260200191508051906020019080838360005b838110156104155780820151818401526020810190506103fa565b50505050905090810190601f1680156104425780820380516001836020036101000a031916815260200191505b509e50505050505050505050505050505060405180910390f35b34801561046857600080fd5b50610471611184565b6040518082815260200191505060405180910390f35b34801561049357600080fd5b506104b26004803603810190808035906020019092919050505061118a565b604051808473ffffffffffffffffffffffffffffffffffffffff1673ffffffffffffffffffffffffffffffffffffffff168152602001838152602001828152602001935050505060405180910390f35b61052e6004803603810190808035906020019092919080356000191690602001909291905050506115c7565b604051808215151515815260200191505060405180910390f35b34801561055457600080fd5b506105ff60048036038101908080359060200190929190803590602001908201803590602001908080601f0160208091040260200160405190810160405280939291908181526020018383808284378201915050505050509192919290803590602001908201803590602001908080601f016020809104026020016040519081016040528093929190818152602001838380828437820191505050505050919291929050505061185a565b005b600061060b611f9c565b600160006002600086815260200190815260200160002060009054906101000a900473ffffffffffffffffffffffffffffffffffffffff1673ffffffffffffffffffffffffffffffffffffffff1673ffffffffffffffffffffffffffffffffffffffff16815260200190815260200160002060008481526020019081526020016000206101c0604051908101604052908160008201548152602001600182018054600181600116156101000203166002900480601f01602080910402602001604051908101604052809291908181526020018280546001816001161561010002031660029004801561073e5780601f106107135761010080835404028352916020019161073e565b820191906000526020600020905b81548152906001019060200180831161072157829003601f168201915b50505050508152602001600282018054600181600116156101000203166002900480601f0160208091040260200160405190810160405280929190818152602001828054600181600116156101000203166002900480156107e05780601f106107b5576101008083540402835291602001916107e0565b820191906000526020600020905b8154815290600101906020018083116107c357829003601f168201915b50505050508152602001600382018054600181600116156101000203166002900480601f0160208091040260200160405190810160405280929190818152602001828054600181600116156101000203166002900480156108825780601f1061085757610100808354040283529160200191610882565b820191906000526020600020905b81548152906001019060200180831161086557829003601f168201915b50505050508152602001600482018054600181600116156101000203166002900480601f0160208091040260200160405190810160405280929190818152602001828054600181600116156101000203166002900480156109245780601f106108f957610100808354040283529160200191610924565b820191906000526020600020905b81548152906001019060200180831161090757829003601f168201915b505050505081526020016005820154815260200160068201548152602001600782015481526020016008820160009054906101000a900473ffffffffffffffffffffffffffffffffffffffff1673ffffffffffffffffffffffffffffffffffffffff1673ffffffffffffffffffffffffffffffffffffffff16815260200160098201548152602001600a8201548152602001600b8201548152602001600c820160009054906101000a900460ff1660028111156109dd57fe5b60028111156109e857fe5b8152602001600c820160019054906101000a900460ff166001811115610a0a57fe5b6001811115610a1557fe5b815250509050806101600151915050919050565b610a31611f9c565b8385101515610a3f57600080fd5b600160008082825401925050819055506101c06040519081016040528060005481526020018a8152602001898152602001888152602001878152602001868152602001858152602001848152602001600073ffffffffffffffffffffffffffffffffffffffff16815260200160008152602001600081526020016000815260200160006002811115610acd57fe5b8152602001836001811115610ade57fe5b6001811115610ae957fe5b815250905080600160003373ffffffffffffffffffffffffffffffffffffffff1673ffffffffffffffffffffffffffffffffffffffff168152602001908152602001600020600080548152602001908152602001600020600082015181600001556020820151816001019080519060200190610b66929190612038565b506040820151816002019080519060200190610b83929190612038565b506060820151816003019080519060200190610ba0929190612038565b506080820151816004019080519060200190610bbd929190612038565b5060a0820151816005015560c0820151816006015560e082015181600701556101008201518160080160006101000a81548173ffffffffffffffffffffffffffffffffffffffff021916908373ffffffffffffffffffffffffffffffffffffffff160217905550610120820151816009015561014082015181600a015561016082015181600b015561018082015181600c0160006101000a81548160ff02191690836002811115610c6a57fe5b02179055506101a082015181600c0160016101000a81548160ff02191690836001811115610c9457fe5b021790555090505033600260008054815260200190815260200160002060006101000a81548173ffffffffffffffffffffffffffffffffffffffff021916908373ffffffffffffffffffffffffffffffffffffffff160217905550505050505050505050565b60006060806060806000806000806000610d12611f9c565b60016000600260008f815260200190815260200160002060009054906101000a900473ffffffffffffffffffffffffffffffffffffffff1673ffffffffffffffffffffffffffffffffffffffff1673ffffffffffffffffffffffffffffffffffffffff16815260200190815260200160002060008d81526020019081526020016000206101c0604051908101604052908160008201548152602001600182018054600181600116156101000203166002900480601f016020809104026020016040519081016040528092919081815260200182805460018160011615610100020316600290048015610e455780601f10610e1a57610100808354040283529160200191610e45565b820191906000526020600020905b815481529060010190602001808311610e2857829003601f168201915b50505050508152602001600282018054600181600116156101000203166002900480601f016020809104026020016040519081016040528092919081815260200182805460018160011615610100020316600290048015610ee75780601f10610ebc57610100808354040283529160200191610ee7565b820191906000526020600020905b815481529060010190602001808311610eca57829003601f168201915b50505050508152602001600382018054600181600116156101000203166002900480601f016020809104026020016040519081016040528092919081815260200182805460018160011615610100020316600290048015610f895780601f10610f5e57610100808354040283529160200191610f89565b820191906000526020600020905b815481529060010190602001808311610f6c57829003601f168201915b50505050508152602001600482018054600181600116156101000203166002900480601f01602080910402602001604051908101604052809291908181526020018280546001816001161561010002031660029004801561102b5780601f106110005761010080835404028352916020019161102b565b820191906000526020600020905b81548152906001019060200180831161100e57829003601f168201915b505050505081526020016005820154815260200160068201548152602001600782015481526020016008820160009054906101000a900473ffffffffffffffffffffffffffffffffffffffff1673ffffffffffffffffffffffffffffffffffffffff1673ffffffffffffffffffffffffffffffffffffffff16815260200160098201548152602001600a8201548152602001600b8201548152602001600c820160009054906101000a900460ff1660028111156110e457fe5b60028111156110ef57fe5b8152602001600c820160019054906101000a900460ff16600181111561111157fe5b600181111561111c57fe5b815250509050806000015181602001518260400151836060015184608001518560a001518660c001518760e00151886101800151896101a001518898508797508696508595509a509a509a509a509a509a509a509a509a509a50509193959799509193959799565b60005481565b6000806000611197611f9c565b600160006002600088815260200190815260200160002060009054906101000a900473ffffffffffffffffffffffffffffffffffffffff1673ffffffffffffffffffffffffffffffffffffffff1673ffffffffffffffffffffffffffffffffffffffff16815260200190815260200160002060008681526020019081526020016000206101c0604051908101604052908160008201548152602001600182018054600181600116156101000203166002900480601f0160208091040260200160405190810160405280929190818152602001828054600181600116156101000203166002900480156112ca5780601f1061129f576101008083540402835291602001916112ca565b820191906000526020600020905b8154815290600101906020018083116112ad57829003601f168201915b50505050508152602001600282018054600181600116156101000203166002900480601f01602080910402602001604051908101604052809291908181526020018280546001816001161561010002031660029004801561136c5780601f106113415761010080835404028352916020019161136c565b820191906000526020600020905b81548152906001019060200180831161134f57829003601f168201915b50505050508152602001600382018054600181600116156101000203166002900480601f01602080910402602001604051908101604052809291908181526020018280546001816001161561010002031660029004801561140e5780601f106113e35761010080835404028352916020019161140e565b820191906000526020600020905b8154815290600101906020018083116113f157829003601f168201915b50505050508152602001600482018054600181600116156101000203166002900480601f0160208091040260200160405190810160405280929190818152602001828054600181600116156101000203166002900480156114b05780601f10611485576101008083540402835291602001916114b0565b820191906000526020600020905b81548152906001019060200180831161149357829003601f168201915b505050505081526020016005820154815260200160068201548152602001600782015481526020016008820160009054906101000a900473ffffffffffffffffffffffffffffffffffffffff1673ffffffffffffffffffffffffffffffffffffffff1673ffffffffffffffffffffffffffffffffffffffff16815260200160098201548152602001600a8201548152602001600b8201548152602001600c820160009054906101000a900460ff16600281111561156957fe5b600281111561157457fe5b8152602001600c820160019054906101000a900460ff16600181111561159657fe5b60018111156115a157fe5b815250509050806101000151816101200151826101400151935093509350509193909250565b600080600160006002600087815260200190815260200160002060009054906101000a900473ffffffffffffffffffffffffffffffffffffffff1673ffffffffffffffffffffffffffffffffffffffff1673ffffffffffffffffffffffffffffffffffffffff168152602001908152602001600020600085815260200190815260200160002090508060050154421015151561166257600080fd5b8060060154421115151561167557600080fd5b80600701543411151561168757600080fd5b600081600d0160003373ffffffffffffffffffffffffffffffffffffffff1673ffffffffffffffffffffffffffffffffffffffff1681526020019081526020016000206000856000191660001916815260200190815260200160002060000160009054906101000a900473ffffffffffffffffffffffffffffffffffffffff1673ffffffffffffffffffffffffffffffffffffffff1614151561172957600080fd5b6080604051908101604052803373ffffffffffffffffffffffffffffffffffffffff1681526020018581526020013481526020016000151581525081600d0160003373ffffffffffffffffffffffffffffffffffffffff1673ffffffffffffffffffffffffffffffffffffffff1681526020019081526020016000206000856000191660001916815260200190815260200160002060008201518160000160006101000a81548173ffffffffffffffffffffffffffffffffffffffff021916908373ffffffffffffffffffffffffffffffffffffffff160217905550602082015181600101556040820151816002015560608201518160030160006101000a81548160ff021916908315150217905550905050600181600b0160008282540192505081905550600191505092915050565b6000806118656120b8565b60008060016000600260008b815260200190815260200160002060009054906101000a900473ffffffffffffffffffffffffffffffffffffffff1673ffffffffffffffffffffffffffffffffffffffff1673ffffffffffffffffffffffffffffffffffffffff168152602001908152602001600020600089815260200190815260200160002094508460060154421115156118ff57600080fd5b86866040518083805190602001908083835b6020831015156119365780518252602082019150602081019050602083039250611911565b6001836020036101000a03801982511681845116808217855250505050505090500182805190602001908083835b6020831015156119895780518252602082019150602081019050602083039250611964565b6001836020036101000a038019825116818451168082178552505050505050905001925050506040518091039020935084600d0160003373ffffffffffffffffffffffffffffffffffffffff1673ffffffffffffffffffffffffffffffffffffffff16815260200190815260200160002060008560001916600019168152602001908152602001600020608060405190810160405290816000820160009054906101000a900473ffffffffffffffffffffffffffffffffffffffff1673ffffffffffffffffffffffffffffffffffffffff1673ffffffffffffffffffffffffffffffffffffffff16815260200160018201548152602001600282015481526020016003820160009054906101000a900460ff16151515158152505092506000836000015173ffffffffffffffffffffffffffffffffffffffff16111515611acf57600080fd5b6000151583606001511515141515611ae657600080fd5b611aef87611d92565b90508083604001511015611b095782604001519150611cc1565b60008560080160009054906101000a900473ffffffffffffffffffffffffffffffffffffffff1673ffffffffffffffffffffffffffffffffffffffff161415611bb357338560080160006101000a81548173ffffffffffffffffffffffffffffffffffffffff021916908373ffffffffffffffffffffffffffffffffffffffff160217905550808560090181905550846007015485600a0181905550808360400151039150611cc0565b8460090154811115611c9557846009015485600a01819055508460080160009054906101000a900473ffffffffffffffffffffffffffffffffffffffff1673ffffffffffffffffffffffffffffffffffffffff166108fc86600901549081150290604051600060405180830381858888f19350505050158015611c3a573d6000803e3d6000fd5b50338560080160006101000a81548173ffffffffffffffffffffffffffffffffffffffff021916908373ffffffffffffffffffffffffffffffffffffffff160217905550808560090181905550808360400151039150611cbf565b84600a0154811115611cb6578085600a018190555082604001519150611cbe565b826040015191505b5b5b5b600185600d0160003373ffffffffffffffffffffffffffffffffffffffff1673ffffffffffffffffffffffffffffffffffffffff1681526020019081526020016000206000866000191660001916815260200190815260200160002060030160006101000a81548160ff0219169083151502179055506000821115611d88573373ffffffffffffffffffffffffffffffffffffffff166108fc839081150290604051600060405180830381858888f19350505050158015611d86573d6000803e3d6000fd5b505b5050505050505050565b6000606060008084925060009150600090505b8251811015611f915760307f0100000000000000000000000000000000000000000000000000000000000000028382815181101515611de057fe5b9060200101517f010000000000000000000000000000000000000000000000000000000000000090047f0100000000000000000000000000000000000000000000000000000000000000027effffffffffffffffffffffffffffffffffffffffffffffffffffffffffffff191610158015611ef8575060397f0100000000000000000000000000000000000000000000000000000000000000028382815181101515611e8857fe5b9060200101517f010000000000000000000000000000000000000000000000000000000000000090047f0100000000000000000000000000000000000000000000000000000000000000027effffffffffffffffffffffffffffffffffffffffffffffffffffffffffffff191611155b15611f845760308382815181101515611f0d57fe5b9060200101517f010000000000000000000000000000000000000000000000000000000000000090047f0100000000000000000000000000000000000000000000000000000000000000027f0100000000000000000000000000000000000000000000000000000000000000900403600a83020191505b8080600101915050611da5565b819350505050919050565b6101c0604051908101604052806000815260200160608152602001606081526020016060815260200160608152602001600081526020016000815260200160008152602001600073ffffffffffffffffffffffffffffffffffffffff1681526020016000815260200160008152602001600081526020016000600281111561202057fe5b81526020016000600181111561203257fe5b81525090565b828054600181600116156101000203166002900490600052602060002090601f016020900481019282601f1061207957805160ff19168380011785556120a7565b828001600101855582156120a7579182015b828111156120a657825182559160200191906001019061208b565b5b5090506120b491906120f9565b5090565b608060405190810160405280600073ffffffffffffffffffffffffffffffffffffffff16815260200160008152602001600081526020016000151581525090565b61211b91905b808211156121175760008160009055506001016120ff565b5090565b905600a165627a7a72305820eb1d32e6606e309d484be203ec7593c90dde98507fcf33f727a562b278aeefc00029",
  "source": "pragma solidity ^0.4.13;\n\ncontract EcommerceStore {\n\t//商品状态\n\tenum ProductStatus {Open, Sold, Unsold}\n\t//商品条件\n\tenum ProductCondition {New, Used}\n\t\n\t//计数器，记录商品id\n\tuint public productIndex;\n\t//商家账户地址 => {商品id => 商品}\n\tmapping(address => mapping(uint => Product)) stores;\n\t//商品id => 商家账户地址\n\tmapping(uint => address) productIdInStore;\n\t\n\tstruct Product {\n\t\tuint id;\n\t\tstring name;\n\t\tstring category;\n\t\tstring imageLink;\n\t\tstring descLink;\n\t\tuint auctionStartTime;  //以秒存储开始和结束时间\n\t\tuint auctionEndTime;\n\t\tuint startPrice; //单位为 wei\n\t\taddress highestBidder;\n\t\tuint highestBid;\n\t\tuint secondHighestBid;\n\t\tuint totalBids; //总出价次数\n\t\tProductStatus status;\n\t\tProductCondition condition;\n\t\t//出价者地址 => {出价字符串 => 出价对象}\n\t\tmapping(address => mapping(bytes32 => Bid)) bids;\n\t}\n\t\n\tstruct Bid {\n\t\taddress bidder; //出价者\n\t\tuint productId;\n\t\tuint value; //转账以太金额\n\t\tbool revealed; //是否揭示\n\t}\n\t\n\tconstructor() public {\n\t\tproductIndex = 0;\n\t}\n\t\n\t//添加商品\n\tfunction addProductToStore(string _name, string _category, string _imageLink, string _descLink, uint _auctionStartTime,\n\t\tuint _auctionEndTime, uint _startPrice, uint _productCondition) public {\n\t\trequire(_auctionStartTime < _auctionEndTime);\n\t\tproductIndex += 1;\n\t\tProduct memory product = Product(productIndex, _name, _category, _imageLink, _descLink, _auctionStartTime, _auctionEndTime,\n\t\t\t_startPrice, 0, 0, 0, 0, ProductStatus.Open, ProductCondition(_productCondition));\n\t\tstores[msg.sender][productIndex] = product;\n\t\tproductIdInStore[productIndex] = msg.sender;\n\t}\n\t\n\t//查询商品\n\tfunction getProduct(uint _productId) view public returns (uint, string, string, string, string, uint, uint, uint, ProductStatus, ProductCondition) {\n\t\tProduct memory product = stores[productIdInStore[_productId]][_productId];\n\t\treturn (product.id, product.name, product.category, product.imageLink, product.descLink, product.auctionStartTime,\n\t\tproduct.auctionEndTime, product.startPrice, product.status, product.condition);\n\t}\n\t\n\t//出价\n\tfunction bid(uint _productId, bytes32 _bid) payable public returns (bool) {\n\t\t//_bid 为出价加密字符串，除非用户揭示价格，否则无人知道出价\n\t\tProduct storage product = stores[productIdInStore[_productId]][_productId];\n\t\trequire(now >= product.auctionStartTime);\n\t\trequire(now <= product.auctionEndTime);\n\t\trequire(msg.value > product.startPrice);\n\t\t//本人对该商品未出过此价\n\t\trequire(product.bids[msg.sender][_bid].bidder == 0);\n\t\t// 记录出价数据\n\t\tproduct.bids[msg.sender][_bid] = Bid(msg.sender, _productId, msg.value, false);\n\t\tproduct.totalBids += 1;\n\t\treturn true;\n\t}\n\t\n\t//揭示出价\n\tfunction revealBid(uint _productId, string _amount, string _secret) public {\n\t\tProduct storage product = stores[productIdInStore[_productId]][_productId];\n\t\trequire(now > product.auctionEndTime);\n\t\t//出价的加密字符串\n\t\tbytes32 sealedBid = sha3(_amount, _secret);\n\t\t\n\t\tBid memory bidInfo = product.bids[msg.sender][sealedBid];\n\t\trequire(bidInfo.bidder > 0);\n\t\trequire(bidInfo.revealed == false);\n\t\t\n\t\tuint refund;\n\t\t\n\t\tuint amount = stringToUint(_amount);\n\t\t\n\t\tif (bidInfo.value < amount) {\n\t\t\t//无效出价\n\t\t\t// They didn't send enough amount, they lost\n\t\t\trefund = bidInfo.value;\n\t\t} else {\n\t\t\t// If first to reveal set as highest bidder\n\t\t\tif (address(product.highestBidder) == 0) {\n\t\t\t\tproduct.highestBidder = msg.sender;\n\t\t\t\tproduct.highestBid = amount;\n\t\t\t\tproduct.secondHighestBid = product.startPrice;\n\t\t\t\trefund = bidInfo.value - amount;\n\t\t\t} else {\n\t\t\t\tif (amount > product.highestBid) {\n\t\t\t\t\t//为最高出价\n\t\t\t\t\tproduct.secondHighestBid = product.highestBid;\n\t\t\t\t\tproduct.highestBidder.transfer(product.highestBid);//给第二高出价者退款\n\t\t\t\t\tproduct.highestBidder = msg.sender;\n\t\t\t\t\tproduct.highestBid = amount;\n\t\t\t\t\trefund = bidInfo.value - amount;\n\t\t\t\t} else if (amount > product.secondHighestBid) {\n\t\t\t\t\t//为第二高出价\n\t\t\t\t\tproduct.secondHighestBid = amount;\n\t\t\t\t\trefund = bidInfo.value;\n\t\t\t\t} else {\n\t\t\t\t\trefund = bidInfo.value;\n\t\t\t\t}\n\t\t\t}\n\t\t}\n\t\tproduct.bids[msg.sender][sealedBid].revealed = true;\n\t\t\n\t\tif (refund > 0) {\n\t\t\tmsg.sender.transfer(refund);\n\t\t}\n\t}\n\t\n\tfunction highestBidderInfo(uint _productId) view public returns (address, uint, uint) {\n\t\tProduct memory product = stores[productIdInStore[_productId]][_productId];\n\t\treturn (product.highestBidder, product.highestBid, product.secondHighestBid);\n\t}\n\t\n\tfunction totalBids(uint _productId) view public returns (uint) {\n\t\tProduct memory product = stores[productIdInStore[_productId]][_productId];\n\t\treturn product.totalBids;\n\t}\n\t\n\tfunction stringToUint(string s) pure private returns (uint) {\n\t\tbytes memory b = bytes(s);\n\t\tuint result = 0;\n\t\tfor (uint i = 0; i < b.length; i++) {\n\t\t\tif (b[i] >= 48 && b[i] <= 57) {\n\t\t\t\tresult = result * 10 + (uint(b[i]) - 48);\n\t\t\t}\n\t\t}\n\t\treturn result;\n\t}\n}\n",
  "sourcePath": "/Users/wuming/Developer/go/src/blockchain-tutorial/以太坊教程/ebay_dapp/contracts/EcommerceStore.sol",
  "compiler": {
    "name": "solc",
    "version": "0.4.24+commit.e67f0147.Emscripten.clang"
  },
  "schemaVersion": "2.0.1",
  "updatedAt": "2018-11-12T02:59:00.791Z"
}